1TRANS20251226     FUND ACKNOWLEDGMENT        02102084  9494ABC0000000001                           
F5301949499999494ABC12343SEAS000013679076708            48-00000000364-3278110  3605ABC1234411      
F5301949499999494ABC12343SEAS000023492047611            48-00000000365-6481210  3605ABC1234411      
0201N  9494   99912262025000000000000000000000000000000000000000000000001000000000000000000         
0302   000000000000000000000000                                    000000                           
